:020000040800F2
:1000000000500020B5040008FD040008FD040008AD
:10001000FD040008FD040008FD04000800000000C5
:10002000000000000000000000000000FD040008C7
:10003000FD04000800000000FD040008FD040008A5
:10004000FD040008FD040008FD040008FD0400088C
:10005000FD040008FD040008FD040008FD0400087C
:10006000FD040008FD040008FD0400086D020008FE
:10007000FD040008FD040008FD040008FD0400085C
:10008000FD040008FD040008FD040008FD0400084C
:10009000FD040008FD040008FD040008FD0400083C
:1000A000FD040008FD040008FD040008FD0400082C
:1000B000FD040008FD040008FD040008FD0400081C
:1000C000FD040008FD040008FD040008FD0400080C
:1000D000FD040008FD040008FD040008FD040008FC
:1000E000FD040008FD040008FD04000800000000F5
:1000F0000000000000000000000000000000000000
:0C01000000000000000000005FF808F1A3
:10010C0000F1320C2DE9F04F074640F6E44B604607
:10011C00DFF830A1DFF83091DFF830814C4B4D4ED9
:10012C0087B03AF81750ADB20BFB05F5A9FB052CBF
:10013C00A5EB0C020CEB520C45454FEADC2C78D3AA
:10014C000024454A0195A2FB0512120D9646A6FB0A
:10015C000215ED0805EB8501A2EB41012A4604F1DD
:10016C00180530316D4405F80C1CBEF1090F04F173
:10017C0001052146ECB2E9D8019D64B186460131F6
:10018C0003AC214411F8010D1A681206FCD58C42FF
:10019C005860F7D170461A681206FCD52F4AA2FB9C
:1001AC0005252E226D0C5A60A6FB0512D20802EB17
:1001BC008202A5EB42013031C9B21A681506FCD592
:1001CC005960A6FB0C12D208A6FB0241C90801EB30
:1001DC008101A2EB41013031C9B21A681406FCD579
:1001EC005960A6FB0C12D20802EB8202ACEB420166
:1001FC003031C9B21A681206FCD559601A68150656
:10020C00FCD520225A601A681406FCD556225A6076
:10021C001A681106FCD50A225A601A681206FCD517
:10022C000D22013787425A607FF47BAF07B0BDE8DF
:10023C00F08F1A681106FCD530225A601A68120623
:10024C00A9D5ABE70800002001011000187C3E0086
:10025C0000380140CDCCCCCC21508D4129A4F0519B
:10026C00094B1A68510704D504200121074A58602C
:10027C001170054B1A68920704D502200121044A1B
:10028C0058601170704700BF00000240050000204C
:10029C00040000205A4A42F208049369594943F475
:1002AC00804343F0040380B593614B68564823F0B8
:1002BC00F0034B604B68554D43F0B0034B60036843
:1002CC00534803F59653A0FB030300209B0AAB6035
:1002DC00EC6094694F4B44F401749461546882B09F
:1002EC0024F440445460546844F4004454600A6854
:1002FC0022F00F020A6058609860DA6A22F47002E9
:10030C00DA625A6B22F01F025A631A6922F0070252
:10031C001A611A6942F007021A619A6842F4C01213
:10032C0042F480729A609A6842F001029A600190DD
:10033C00019BB3F57A7F06D2019B01330193019B9C
:10034C00B3F57A7FF8D3334A936843F0080393608C
:10035C0093681B07FCD491682E4B41F0040191600B
:10036C009E6816F00406FBD101204FF0640942F29E
:10037C00A65810274FF4006E42F20F7520244FF050
:10038C00470C1F4ADFF890A053692449034353617B
:10039C00234B9E60C3F810A0DFF888A0C3F814A00C
:1003AC00C3F80C90C3F80880586081F80B73C1F83F
:1003BC0000E0996801439960D36943F00203D3616B
:1003CC00194B1E605E60C3F828C0DD6258611E6167
:1003DC005C601A68154D0243154C1A602B784BB9AA
:1003EC002378002BFAD032202670FFF789FE2B7869
:1003FC00002BF5D000202E70FFF782FEF0E700BF37
:10040C0000100240000801400000002000380140AC
:10041C00B5814E1B002401404C24014000E100E05A
:10042C0000000240080000200004004005000020ED
:10043C00040000201421164B164A1960136843F46B
:10044C008033136013689903FCD55068124B114923
:10045C0003405360536843F4E81343F480635360E0
:10046C00136843F0807313600B689B01FCD54B68D9
:10047C00084A23F0030343F002034B60536803F074
:10048C000C03082BFAD1054B054A1A60704700BFC4
:10049C0000200240001002400CC0C0FF00000020F1
:1004AC0000A24A04704700BFFFF7C4FF0B480C4979
:1004BC000C4A002302E0D458C4500433C4188C42B4
:1004CC00F9D3094A094C002301E013600432A2421B
:1004DC00FBD3FFF7E7FFFFF7DDFE704700000020BE
:1004EC00040000200005000804000020D0000020BB
:0404FC00FEE7000017
:0405000000A24A0407
:04000005080004B536
:00000001FF
