:020000040800F2
:1000000000500020A5040008ED040008ED040008DD
:10001000ED040008ED040008ED04000800000000F5
:10002000000000000000000000000000ED040008D7
:10003000ED04000800000000ED040008ED040008D5
:10004000ED040008ED040008ED040008ED040008CC
:10005000ED040008ED040008ED040008ED040008BC
:10006000ED040008ED040008ED0400083D0300085D
:10007000ED040008ED040008ED040008ED0400089C
:10008000ED040008ED040008ED040008ED0400088C
:10009000ED040008ED040008ED040008ED0400087C
:1000A000ED040008ED040008ED040008ED0400086C
:1000B000ED040008ED040008ED040008ED0400085C
:1000C000ED040008ED040008ED040008ED0400084C
:1000D000ED040008ED040008ED040008ED0400083C
:1000E000ED040008ED040008ED0400080000000025
:1000F0000000000000000000000000000000000000
:0C01000000000000000000005FF808F1A3
:10010C0008B500F055F900F041F800F0C3F800F024
:10011C002DF900F09DF8FCE71421164B164A1960D6
:10012C00136843F48033136013689903FCD550684B
:10013C00124B114903405360536843F4E81343F4E2
:10014C0080635360136843F0807313600B689B01EA
:10015C00FCD54B68084A23F0030343F002034B60C1
:10016C00536803F00C03082BFAD1054B054A1A60AF
:10017C00704700BF00200240001002400CC0C0FFBE
:10018C000000002000A24A04704700BF2D4A2E48F0
:10019C0091692E4B41F401719161516882B021F447
:1001AC0040415160516841F40041516002680021A6
:1001BC0022F00F0202601A6922F007021A611A6912
:1001CC0042F007021A61DA6A22F47002DA625A6BA0
:1001DC0022F01F025A639A6822F002029A609A680F
:1001EC0042F480129A609A6822F460229A609A68AB
:1001FC0042F400229A609A6842F480729A609A687B
:10020C0042F001029A600191019BB3F57A7F06D20C
:10021C00019B01330193019BB3F57A7FF8D30B4A11
:10022C00936843F00803936093681907FCD49368B0
:10023C00064943F0040393608B685B07FCD402B05F
:10024C00704700BF0010024000080140002401402C
:10025C0008B50C4B1A781AB90B4B1A7852B908BD61
:10026C000022322109481A7000F0F8F8064B1A786F
:10027C00002AF4D000221A703221BDE8084004484C
:10028C0000F0ECB80500002004000020080000205D
:10029C006C00002010B464242049214B4A69214889
:1002AC0042F001024A619A681F4922F001029A60E9
:1002BC001E4A18615A61DC609A684FF4006022F0A3
:1002CC0010029A609A6810BC42F020029A609A68F8
:1002DC0022F040029A609A6842F080029A609A6812
:1002EC0022F440729A609A6842F480729A609A681A
:1002FC0022F440629A609A6842F480629A609A682A
:10030C0042F004029A609A6842F002029A60086015
:10031C009A6842F001029A60704700BF00100240D8
:10032C00000002404C24014000E100E008000020E5
:10033C000B4B1A68510706D501205A68094942F03F
:10034C0004025A600870064B1A68920706D5012001
:10035C005A68054942F002025A600870704700BFA3
:10036C0000000240050000200400002010B46320AF
:10037C0041F61F440C490D4BCA6942F00202CA6196
:10038C009C62D8625A6910BC42F001025A615A68E8
:10039C0022F070025A605A6842F020025A601A68C1
:1003AC0042F001021A607047001002400004004045
:1003BC0010B442F2080041F64C540B490B4A8B69BD
:1003CC0043F4804343F004038B615368A1F5584117
:1003DC0023F0F0035360536843F0B00353608C6018
:1003EC0010BCC860704700BF0010024000080140FC
:1003FC0048B3002130B5174D85B08446A5FB0023CA
:10040C00DB0801F1100201F1010E03EB8301A0EBFB
:10041C00410030300DEB0204BCF1090F04F80C0C58
:10042C005FFA8EF11846E8D859B1714601AC0A4A08
:10043C00214411F8010D13681B06FCD5A142506034
:10044C00F7D105B030BD044A13681906FCD530232A
:10045C0053607047CDCCCCCC00380140C9B12DE9EC
:10046C00F04105464FF00A080D270A4C00EB4106F7
:10047C0035F8020BFFF7BCFF23681A06FCD5C4F84D
:10048C00048023681B06FCD5B5426760F0D1BDE83B
:10049C00F081704700380140FFF73EFE0B480C49D5
:1004AC000C4A002302E0D458C4500433C4188C42C4
:1004BC00F9D3094A094C002301E013600432A2422B
:1004CC00FBD3FFF761FEFFF71BFE70470000002017
:1004DC0004000020F004000804000020D0000020DC
:0404EC00FEE7000027
:0404F00000A24A0418
:04000005080004A546
:00000001FF
