:020000040800F2
:1000000000500020010400084904000849040008C9
:1000100049040008490400084904000800000000E1
:10002000000000000000000000000000490400087B
:1000300049040008000000004904000849040008C1
:10004000490400084904000849040008490400085C
:10005000490400084904000849040008490400084C
:10006000490400084904000849040008490400083C
:10007000490400084904000849040008490400082C
:10008000490400084904000849040008490400081C
:10009000490400084904000849040008490400080C
:1000A00049040008490400084904000849040008FC
:1000B00049040008490400084904000849040008EC
:1000C00049040008490400084904000849040008DC
:1000D00049040008490400084904000849040008CC
:1000E0004904000849040008490400080000000011
:1000F0000000000000000000000000000000000000
:0C01000000000000000000005FF808F1A3
:10010C00F0B5002583B000F02BF94FF0FF3600F06E
:10011C0055F82F460B4C284600F0CEF80197019B62
:10012C00A34205D8019B01330193019BA342F9D94A
:10013C0035446DB26B1C03DBEDD04FF0FF36EAE7B4
:10014C000126E8E7FF340C001421164B164A1960FF
:10015C00136843F48033136013689903FCD550681B
:10016C00124B114903405360536843F4E81343F4B2
:10017C0080635360136843F0807313600B689B01BA
:10018C00FCD54B68084A23F0030343F002034B6091
:10019C00536803F00C03082BFAD1054B054A1A607F
:1001AC00704700BF00200240001002400CC0C0FF8E
:1001BC000000002000A24A04704700BF3C4A70B502
:1001CC00D368092023F01003D36000F005F9002058
:1001DC0000F002F9374A93681806FCD4344B0B2014
:1001EC00DA6842F01002DA60DA6822F01002DA60A3
:1001FC0000F0F2F8072000F0EFF82E4B9C6814F09A
:10020C008004FBD12A4B0A20DA6842F01002DA6033
:10021C00DA6822F01002DA6000F0DEF8204600F016
:10022C00DBF8244B9C6814F08004FBD1204B0F208E
:10023C00DA6842F01002DA60DA6822F01002DA6052
:10024C0000F0CAF8204600F0C7F81A4A936819065D
:10025C00FCD40126164D174CEB6843F01003EB60F1
:10026C00EB68F0B223F01003EB6000F0B5F800205F
:10027C0000F0B2F8A3681A06FCD4EB68013643F020
:10028C001003092EEB60EBD1EB680C2023F010036C
:10029C00EB6000F0A1F8012000F09EF8054A93688D
:1002AC001B06FCD4024AD36843F01003D36070BD24
:1002BC0000080140003001402DE9F8434FF00008E0
:1002CC004FF000090126204B204DC3E9008905F1B0
:1002DC00080EC0B20723C0F10704E4B206FA04F416
:1002EC0015F801CF1A49E4B24CFA03F212F0010FDF
:1002FC0003F1FF3304D0072802D80A7822430A708E
:10030C005A1C01F1FF31EFD101307545C0B2E1D17A
:10031C000126104F104D114CEB6817F8018F23F08C
:10032C001003EB60F0B200F057F8404600F054F8C0
:10033C00A3681B06FCD4EB68013643F01003092EAE
:10034C00EB60E9D1BDE8F883080000204B040008FD
:10035C000F00002007000020000801400030014081
:10036C0010B4002010241A4B1A4A996941F0040168
:10037C009961996941F4805199611168A3F56043C1
:10038C0089B21160116841F0304141F430011160C3
:10039C00116841F080611160116841F440311160C5
:1003AC00146118601A6810BC42F400721A601A6862
:1003BC0042F480721A601A6842F018021A601A68C5
:1003CC0042F004021A601A6842F040021A60704748
:1003DC00001002400008014005498B689A07FCD5C3
:1003EC00034AC8609368DB07FCD5D068C0B270477D
:1003FC0000300140FFF7A8FE0B480C490C4A0023C3
:10040C0002E0D458C4500433C4188C42F9D3094ABE
:10041C00094C002301E013600432A242FBD3FFF726
:10042C00CBFEFFF76DFE704700000020040000209B
:10043C00540400080800002010000020FEE7000013
:08044C000066FFFFFF7E3C1873
:0404540000A24A04B4
:0400000508000401EA
:00000001FF
