:020000040800F2
:10000000005000208D040008D5040008D504000825
:10001000D5040008D5040008D5040008000000003D
:10002000000000000000000000000000D5040008EF
:10003000D504000800000000D50400086D01000888
:10004000D5040008D5040008D5040008D50400082C
:10005000D5040008D5040008D5040008D50400081C
:10006000D5040008D5040008D5040008D50400080C
:10007000D5040008D5040008D5040008D5040008FC
:10008000D5040008D5040008D5040008D5040008EC
:10009000D5040008D5040008D5040008D5040008DC
:1000A000D5040008D5040008D5040008D5040008CC
:1000B000D5040008D5040008D5040008D5040008BC
:1000C000D5040008D5040008D5040008D5040008AC
:1000D000D5040008D5040008D5040008D50400089C
:1000E000D5040008D5040008D5040008000000006D
:1000F0000000000000000000000000000000000000
:0C01000000000000000000005FF808F1A3
:10010C002DE9F0410546EDB205F1060800F0B0F915
:10011C00124F5FFA88F805E00135EDB2454507F15D
:10012C00010716D0072DF7D800243E78C4F107023A
:10013C0046FA02F2E0B2294602F00102013400F064
:10014C007DF9082CF2D10135EDB2454507F10107D7
:10015C00E8D1BDE8F04100F063B900BFD804000855
:10016C0041F2883C19491A480B88026801339BB24A
:10017C0001326345026010D00B80164A138801339C
:10018C009BB2B3F5FA7F18D01380134A138801334E
:10019C009BB2322B09D01380704700230F4A0B807F
:1001AC00D36883F00103D360E7E700230B49138086
:1001BC00CB6883F00403CB6070470023074913809E
:1001CC00CB6883F00203CB60DFE700BF0C0000209C
:1001DC00100000200A000020080000200008014048
:1001EC002549264A8B6980B543F004038B6113685B
:1001FC0023486FF30B0313601368224943F408730D
:10020C0043F0020313600368A1FB03139B09013B3A
:10021C00B3F1807F0AD24FF0E022F02500200721B5
:10022C00194C536184F8235090611161174D00F003
:10023C00A5F895F90000FFF763FF00274FF00208BF
:10024C00134C144E2368C72BFCD9287833782760BD
:10025C00184440B2012807DDFF23022085F80080F6
:10026C003370FFF74DFFEDE704D0012300202F7012
:10027C003370F6E72870F4E70010024000080140E4
:10028C0004000020D34D621000ED00E014000020AB
:10029C0010000020000000201421164B164A196093
:1002AC00136843F48033136013689903FCD55068CA
:1002BC00124B114903405360536843F4E81343F461
:1002CC0080635360136843F0807313600B689B0169
:1002DC00FCD54B68084A23F0030343F002034B6040
:1002EC00536803F00C03082BFAD1054B054A1A602E
:1002FC00704700BF00200240001002400CC0C0FF3D
:10030C000400002000A24A04704700BF10B4002370
:10031C001024184A83B054610193019B092B05D812
:10032C00019B01330193019B092BF9D9124A936864
:10033C009C07FCD5104CD060A3681A06FCD40E4A5E
:10034C0093689B07FCD50C48D160836813F080033D
:10035C00FBD10093009B092B05D8009B0133009324
:10036C00009B092BF9D91022024B1A6103B010BC67
:10037C00704700BF000801400030014038B54FF411
:10038C0041752349234B8A69234C42F4805242F035
:10039C0004028A611A68002122F470221A601A6819
:1003AC00092042F400321A601A6822F0704222F4DA
:1003BC0070021A601A6842F420021A601A6842F03D
:1003CC0020421A602560236843F040032360FFF746
:1003DC009DFF07210A20FFF799FF0B20FFF796FFDF
:1003EC0001210C20FFF792FF00210F20FFF78EFF59
:1003FC00002000210124094BC3E900015D1EE0B27D
:10040C0015F8011F0134FFF781FF092CF7D138BD16
:10041C00001002400008014000300140180000208C
:10042C0038B50124044DE0B215F8011F0134FFF773
:10043C006DFF092CF7D138BD1700002040EA0103ED
:10044C00072B12D8012310B4084C834014F801C0B8
:10045C002AB92CEA030C04F801C010BC70474CEA12
:10046C00030C04F801C010BC704770471800002042
:10047C0000200021014BC3E9000170471800002047
:10048C00FFF70AFF0B480C490C4A002302E0D45832
:10049C00C4500433C4188C42F9D3094A094C0023C4
:1004AC0001E013600432A242FBD3FFF72DFFFFF7EC
:1004BC0097FE70470000002008000020E0040008B0
:1004CC000800002020000020FEE7000066FFFF7EF1
:0404DC003C180000C8
:0804E0000100000000A24A0423
:040000050800048D5E
:00000001FF
