:020000040800F2
:1000000000500020AD050008F5050008F5050008C2
:10001000F5050008F5050008F505000800000000DA
:10002000000000000000000000000000F5050008CE
:10003000F505000800000000F50500085D01000856
:10004000F5050008F5050008F5050008F5050008A8
:10005000F5050008F5050008F5050008F505000898
:10006000F5050008F5050008F5050008F505000888
:10007000F5050008F5050008F5050008F505000878
:10008000F5050008F5050008F5050008F505000868
:10009000F5050008F5050008F5050008F505000858
:1000A000F5050008F5050008F5050008F505000848
:1000B000F5050008F5050008F5050008F505000838
:1000C000F5050008F5050008F5050008F505000828
:1000D000F5050008F5050008F5050008F505000818
:1000E000F5050008F5050008F5050008000000000A
:1000F0000000000000000000000000000000000000
:0C01000000000000000000005FF808F1A3
:10010C002DE9F0410546662600F042FAEDB205F104
:10011C0006080E4F5FFA88F80024C4F1070246FA6D
:10012C0002F2E0B2294602F00102013400F016FAA4
:10013C00082CF2D10135EDB2454502D017F8016F0C
:10014C00EAE7BDE8F04100F0FBB900BFF805000894
:10015C0041F2883C19491A480B88026801339BB25A
:10016C0001326345026010D00B80164A13880133AC
:10017C009BB2B3F5FA7F18D01380134A138801335E
:10018C009BB2322B09D01380704700230F4A0B808F
:10019C00D36883F00103D360E7E700230B49138096
:1001AC00CB6883F00403CB607047002307491380AE
:1001BC00CB6883F00203CB60DFE700BF0C000020AC
:1001CC00100000200A000020080000200008014058
:1001DC007249F8B58B69724A43F004038B6113685A
:1001EC0070486FF30B03136013686F4943F4087383
:1001FC0043F0020313600368A1FB03139B09013B4B
:10020C00B3F1807F0AD24FF0E022F02500200721C5
:10021C00664C536184F823509061116100F03EF9F3
:10022C000025634C634E23685B1BB3F5FA6FFAD35E
:10023C0033782568013303F007035A1E3370062AFE
:10024C0000F2A080DFE802F08A4908049A049600C4
:10025C000120FFF755FFE6E700F09AF9012205218E
:10026C00002000F07BF901220521072000F076F92F
:10027C0001220621002000F071F90122062107203D
:10028C0000F06CF901220721002000F067F901222F
:10029C000721104600F062F901220721022000F02C
:1002AC005DF901220721032000F058F901220721F2
:1002BC00042000F053F901220721052000F04EF92B
:1002CC0001220721062000F049F9072101220846E6
:1002DC0000F044F900F034F9A5E700F059F90021D9
:1002EC000122084600F03AF901220021104600F0E4
:1002FC0035F901220021022000F030F90122002101
:10030C00032000F02BF901220021042000F026F933
:10031C0001220021052000F021F9012200210620F4
:10032C0000F01CF901220021072000F017F901222E
:10033C000020114600F012F901220720114600F0AE
:10034C000DF901220221002000F008F901220221FE
:10035C00072000F003F900F0F3F864E700F018F957
:10036C000027F8B201220721013700F0F7F8082F17
:10037C00F7D1F0E70220FFF7C3FE54E70020FFF7A8
:10038C00BFFE50E700F004F90027F8B2012200216B
:10039C00013700F0E3F8082FF7D1DCE7001002403A
:1003AC000008014000000020D34D621000ED00E079
:1003BC00100000200E0000201421164B164A196064
:1003CC00136843F48033136013689903FCD55068A9
:1003DC00124B114903405360536843F4E81343F440
:1003EC0080635360136843F0807313600B689B0148
:1003FC00FCD54B68084A23F0030343F002034B601F
:10040C00536803F00C03082BFAD1054B054A1A600C
:10041C00704700BF00200240001002400CC0C0FF1B
:10042C000000002000A24A04704700BF10B4002353
:10043C001024184A83B054610193019B092B05D8F1
:10044C00019B01330193019B092BF9D9124A936843
:10045C009C07FCD5104CD060A3681A06FCD40E4A3D
:10046C0093689B07FCD50C48D160836813F080031C
:10047C00FBD10093009B092B05D8009B0133009303
:10048C00009B092BF9D91022024B1A6103B010BC46
:10049C00704700BF000801400030014038B54FF4F0
:1004AC0041752349234B8A69234C42F4805242F014
:1004BC0004028A611A68002122F470221A601A68F8
:1004CC00092042F400321A601A6822F0704222F4B9
:1004DC0070021A601A6842F420021A601A6842F01C
:1004EC0020421A602560236843F040032360FFF725
:1004FC009DFF07210A20FFF799FF0B20FFF796FFBE
:10050C0001210C20FFF792FF00210F20FFF78EFF37
:10051C00002000210124094BC3E900015D1EE0B25B
:10052C0015F8011F0134FFF781FF092CF7D138BDF5
:10053C00001002400008014000300140180000206B
:10054C0038B50124044DE0B215F8011F0134FFF752
:10055C006DFF092CF7D138BD1700002040EA0103CC
:10056C00072B12D8012310B4084C834014F801C097
:10057C002AB92CEA030C04F801C010BC70474CEAF1
:10058C00030C04F801C010BC704770471800002021
:10059C0000200021014BC3E9000170471800002026
:1005AC00FFF70AFF0B480C490C4A002302E0D45811
:1005BC00C4500433C4188C42F9D3094A094C0023A3
:1005CC0001E013600432A242FBD3FFF72DFFFFF7CB
:1005DC00FFFD70470000002004000020000600080A
:1005EC000800002020000020FEE7000066FFFF7ED0
:0405FC003C180000A7
:0406000000A24A0406
:04000005080005AD3D
:00000001FF
