:020000040800F2
:100000000050002095040008DD040008DD0400080D
:10001000DD040008DD040008DD0400080000000025
:10002000000000000000000000000000DD040008E7
:10003000DD04000800000000DD040008DD04000805
:10004000DD040008DD040008DD040008DD0400080C
:10005000DD040008DD040008DD040008DD040008FC
:10006000DD040008DD040008DD040008DD040008EC
:10007000DD040008DD040008F9020008DD040008C2
:10008000DD040008DD040008DD040008DD040008CC
:10009000DD040008DD040008DD040008DD040008BC
:1000A000DD040008DD040008DD040008DD040008AC
:1000B000DD040008DD040008DD040008DD0400089C
:1000C000DD040008DD040008DD040008DD0400088C
:1000D000DD040008DD040008DD040008DD0400087C
:1000E000DD040008DD040008DD0400080000000055
:1000F0000000000000000000000000000000000000
:0C01000000000000000000005FF808F1A3
:10010C0009490A4B8A6942F010028A615A6822F442
:10011C0070025A605A6842F400025A60DA6842F47B
:10012C000052DA60704700BF00100240001001401E
:10013C002DE9F04782B000F087F94FF0000A00F08B
:10014C00E9F800F083F8FFF7DBFF1D4C1D4EDFF8DC
:10015C0078901E4DDFF878801E4F2378AA68012B0B
:10016C0002F4005209D0002AF7D00123237023781F
:10017C00AA68012B02F40052F5D1002AF5D1142003
:10018C0000F0DAF8AA6812F40052EED133780AF1D2
:10019C00010A5FFA8AFA2270002BDED02021534626
:1001AC0042463846CDF8009000F0D4F801460028BD
:1001BC00D3D001313846C9B200F078F8CDE700BF92
:1001CC000000002028000020F4040008001001406A
:1001DC00E0040008080000201421164B164A196090
:1001EC00136843F48033136013689903FCD550688B
:1001FC00124B114903405360536843F4E81343F422
:10020C0080635360136843F0807313600B689B0129
:10021C00FCD54B68084A23F0030343F002034B6000
:10022C00536803F00C03082BFAD1054B054A1A60EE
:10023C00704700BF00200240001002400CC0C0FFFD
:10024C000400002000A24A04704700BF012030B413
:10025C0000254FF48044104A1049536903435361FD
:10026C000F4BA2F55742FC3ADA645D645A6C42F0CB
:10027C0010025A645A6C42F080025A645A6C42F072
:10028C0002025A644B69074A43F080034B61064BE8
:10029C001460187030BC70470010024000380140E8
:1002AC000000024000E100E02800002030B40D4CBA
:1002BC00237893B102464FF4704500204FF0010CA7
:1002CC00094B01395D601A65996420705A6C60465F
:1002DC0030BC42EA0C025A64704703F0FF0C6046D3
:1002EC0030BC70472800002000000240074B1A6801
:1002FC00920409D54FF4005201205A605A6C0449FB
:10030C0022F001025A640870704700BF00000240DE
:10031C00280000204FF0E0220021054B11611B68E2
:10032C000448A0FB03035B0A013B536191617047D6
:10033C0004000020D34D621058B14FF0E022002190
:10034C000123916113611369DB03FCD50138FAD1E8
:10035C00106170472DE9F04385B001AD2F464FF089
:10036C00000E06460C9CDFF8DC801846A8FB039CAC
:10037C004FEADC0C0CEB8C09A3EB49033033092856
:10038C0007F8013B0EF1010E6346EED8177847B122
:10039C0013469C4613F8010F0028FAD1C2F101074D
:1003AC0067442378002B3DD023469C4613F8010F5D
:1003BC000028FAD1B94240D9C91B714537D9A1EBF4
:1003CC000E03C4F1010161448B4230D90EEB070CD2
:1003DC000CEB01004FB1013A731E02EB070912F846
:1003EC00018F4A4503F8018FF9D17B1EAE4433448B
:1003FC001EF8012DAE4503F8012FF9D1634661B10A
:10040C00013C0CF1FF333344651814F8012FAC4256
:10041C0003F8012FF9D10CEB01030022F25405B0C3
:10042C00BDE8F083B94208D9C91B8E4508D3002317
:10043C003370002005B0BDE8F0830029F9D0F6E751
:10044C001946C3E7CDCCCCCC10B442F2080041F62F
:10045C004C540B490B4A8B6943F4804343F004031F
:10046C008B615368A1F5584123F0F0035360536836
:10047C0043F0B00353608C6010BCC860704700BF81
:10048C000010024000080140FFF7A6FE0B480C4983
:10049C000C4A002302E0D458C4500433C4188C42D4
:1004AC00F9D3094A094C002301E013600432A2423B
:1004BC00FBD3FFF7C9FEFFF73BFE7047000000209F
:1004CC0008000020F8040008080000202C00002080
:1004DC00FEE700003C454C45313431353E3C303272
:0C04EC003E3A42544E3A00000A0D000057
:0804F8000100000000A24A040B
:040000050800049556
:00000001FF
