:020000040800F2
:10000000005000200D0400085504000855040008A5
:1000100055040008550400085504000800000000BD
:10002000000000000000000000000000550400086F
:100030005504000800000000550400080D010008E8
:10004000550400085504000855040008550400082C
:10005000550400085504000855040008550400081C
:10006000550400085504000855040008550400080C
:100070005504000855040008410200085504000812
:1000800055040008550400085504000855040008EC
:1000900055040008550400085504000855040008DC
:1000A00055040008550400085504000855040008CC
:1000B00055040008550400085504000855040008BC
:1000C00055040008550400085504000855040008AC
:1000D000550400085504000855040008550400089C
:1000E0004501000855040008550400080000000000
:1000F0000000000000000000000000000000000000
:0C01000000000000000000005FF808F1A3
:10010C000A4A137873B10A4B9B689B040AD50949B8
:10011C000B780133DBB2132B0B7002D90023137055
:10012C000B7070470022034B1A70704705000020BB
:10013C000010014004000020334B5A69920413D57F
:10014C004FF40051314A596193689B040CD43049E7
:10015C000B784BB970B42F4C85B0237803F0FF05A6
:10016C001BB105B070BC7047704701262A480E7051
:10017C0001682A4B31440160294A006803F1130CD1
:10018C0013F8011F634502F8011FF9D1254E84466F
:10019C00A6FB0032D20802EB8203A0EB43032946F4
:1001AC0010466A1C10356D443033BCF1090F05F84C
:1001BC000C3CD5B2EBD825B301AD1B48AB1813F8EA
:1001CC00012DAB4200F8012FF9D1143101250A237E
:1001DC000D204FF48056154A53544B199BB2D054F2
:1001EC00134B0231586C89B220F0010058645E60E8
:1001FC001A6599642570BFF35F8F5A6C2A435A6451
:10020C00AFE71321E2E700BF0004014000100140FA
:10021C0005000020060000200800002057040008FC
:10022C000B000020CDCCCCCC1E0000200C000020FC
:10023C0000000240084B1A6892040CD510B4002040
:10024C004FF480545A6C054922F001025A645C60E8
:10025C00087010BC70477047000002400600002078
:10026C004FF400544FF48046002042F208054FF042
:10027C00800A3B4A2DE98048936941F292094FF478
:10028C0080581027DFF8DCC043F015039361DCF8CD
:10029C0004304FF0200E23F0F003334943F0B00349
:1002AC00CCF804304B68DFF8C4B023F4700343F48B
:1002BC0000034B600C6193694FF4807C3343936172
:1002CC002B4B1B6803F59651ABFB01B1DFF8A4B0C7
:1002DC00890ACBF80810CBF81000CBF814A0CBF897
:1002EC000C505169244D41F0010151612349A2F593
:1002FC0080525064D164C2F84490C2F8048085F8EE
:10030C000E732E601E4EA2F57C42716921F0F00135
:10031C0041EA0E0171611168214311601949A1FB79
:10032C00031391689B0921F400519160D168013B42
:10033C002143B3F1807FD160546185F828E3C5F87F
:10034C0004C009D24FF0E022F02507210E4C536176
:10035C0084F823509061116130BF30BFFCE700BFBF
:10036C00001002400008014000100140B5814E1BF6
:10037C00000000200038014000E100E0043801409A
:10038C0000000140D34D621000ED00E01421164B2B
:10039C00164A1960136843F4803313601368990389
:1003AC00FCD55068124B114903405360536843F419
:1003BC00E81343F480635360136843F08073136055
:1003CC000B689B01FCD54B68084A23F0030343F0F0
:1003DC0002034B60536803F00C03082BFAD1054B56
:1003EC00054A1A60704700BF00200240001002400E
:1003FC000CC0C0FF0000002000A24A04704700BFE0
:10040C00FFF7C4FF0B480C490C4A002302E0D458F8
:10041C00C4500433C4188C42F9D3094A094C002344
:10042C0001E013600432A242FBD3FFF7E7FFFFF7B2
:10043C0017FF704700000020040000206C04000827
:10044C00040000202C000020FEE70000454C453144
:10045C003431355F30325F3033203A42544E3A00FB
:04046C0000A24A049C
:040000050800040DDE
:00000001FF
