:020000040800F2
:1000000000500020F10300083904000839040008FA
:100010003904000839040008390400080000000011
:10002000000000000000000000000000390400088B
:100030003904000800000000390400080D01000820
:10004000390400083904000839040008390400089C
:10005000390400083904000839040008390400088C
:10006000390400083904000839040008390400087C
:100070003904000839040008250200083904000882
:10008000390400083904000839040008390400085C
:10009000390400083904000839040008390400084C
:1000A000390400083904000839040008390400083C
:1000B000390400083904000839040008390400082C
:1000C000390400083904000839040008390400081C
:1000D000390400083904000839040008390400080C
:1000E0001D01000839040008390400080000000060
:1000F0000000000000000000000000000000000000
:0C01000000000000000000005FF808F1A3
:10010C00024A136801331360704700BF10000020CF
:10011C00364B5A69920416D54FF400513448354A7F
:10012C000068596193689B040DD4334A1368C31A51
:10013C00312B08D9F0B5314C85B0217801F0FF0393
:10014C0011B105B0F0BD70472D4910600A682D4DF6
:10015C0001320A603A222C480968286000F1E95003
:10016C0000F57D3000F2F220284E68602A721846A5
:10017C008C46A6FB0132D20802EB8203A1EB4303AF
:10018C0000F11007303311460DEB070E421CBCF189
:10019C00090F0EF80C3CD3B2E9D81BB301AEB3185F
:1001AC001B4A13F8011D9E4202F8011FF9D100F100
:1001BC000C0700F10A020B300A23AB540D224FF44A
:1001CC0080560121134B2A545A6C22F001025A64B6
:1001DC005E601D659F642170BFF35F8F5A6C0A438C
:1001EC005A64AEE70A2009220B27E5E70004014018
:1001FC00100000200010014000000020080000202A
:10020C000C00002014000020484B3031CDCCCCCC5D
:10021C001C00002000000240084B1A6892040CD508
:10022C0010B400204FF480545A6C054922F001029E
:10023C005A645C60087010BC704770470000024044
:10024C00080000204FF400544FF48046002042F286
:10025C0008054FF0800A3B4A2DE98048936941F22A
:10026C0092094FF480581027DFF8DCC043F01503D7
:10027C009361DCF804304FF0200E23F0F003334987
:10028C0043F0B003CCF804304B68DFF8C4B023F46F
:10029C00700343F400034B600C6193694FF4807C52
:1002AC00334393612B4B1B6803F59651ABFB01B1A8
:1002BC00DFF8A4B0890ACBF80810CBF81000CBF803
:1002CC0014A0CBF80C505169244D41F0010151613F
:1002DC002349A2F580525064D164C2F84490C2F80C
:1002EC00048085F80E732E601E4EA2F57C42716957
:1002FC0021F0F00141EA0E01716111682143116096
:10030C001949A1FB031391689B0921F400519160D9
:10031C00D168013B2143B3F1807FD160546185F8F2
:10032C0028E3C5F804C009D24FF0E022F0250721DC
:10033C000E4C536184F823509061116130BF30BF73
:10034C00FCE700BF00100240000801400010014013
:10035C00B5814E1B040000200038014000E100E094
:10036C000438014000000140D34D621000ED00E064
:10037C001421164B164A1960136843F4803313602A
:10038C0013689903FCD55068124B11490340536014
:10039C00536843F4E81343F480635360136843F0E9
:1003AC00807313600B689B01FCD54B68084A23F0E3
:1003BC00030343F002034B60536803F00C03082B58
:1003CC00FAD1054B054A1A60704700BF0020024065
:1003DC00001002400CC0C0FF0400002000A24A0420
:1003EC00704700BFFFF7C4FF0B480C490C4A0023B1
:1003FC0002E0D458C4500433C4188C42F9D3094ACF
:10040C00094C002301E013600432A242FBD3FFF736
:10041C00E7FFFFF717FF70470000002008000020DF
:10042C003C0400080800002034000020FEE7000017
:08043C00CEFFFFFF00A24A04FD
:04000005080003F1FB
:00000001FF
