:020000040800F2
:100000000050002079080008C1080008C108000855
:10001000C1080008C1080008C1080008000000006D
:10002000000000000000000000000000C1080008FF
:10003000C108000800000000C1080008C10800084D
:10004000C1080008C1080008C1080008C10800086C
:10005000C1080008C1080008C1080008C10800085C
:10006000C1080008C1080008C1080008C10800084C
:10007000C1080008C1080008C1080008C10800083C
:10008000C1080008C1080008C1080008C10800082C
:10009000C1080008C1080008C1080008C10800081C
:1000A000C1080008C1080008C1080008C10800080C
:1000B000C1080008C1080008C1080008C1080008FC
:1000C000C1080008C1080008C1080008C1080008EC
:1000D000C1080008C1080008C1080008C1080008DC
:1000E000C1080008C1080008C1080008000000009D
:1000F0000000000000000000000000000000000000
:0C01000000000000000000005FF808F1A3
:10010C0000B583B000F0A4FA00F0F2F9184800F042
:10011C000FFA00F0C9F838B34FF0E02300210122A8
:10012C001448154E154D164C586199611A614FF0D3
:10013C00E0221369DB03FCD501A9684600F0C4F981
:10014C00304600F0F5F90221009800F035FA284607
:10015C0000F0EEF9204600F0EBF9019800F0F6F90A
:10016C00084800F0E5F9E2E7074800F0E1F9FEE79E
:10017C001C0C00083F548900440C0008540C000867
:10018C005C0C0008680C0008300C00081421164B9D
:10019C00164A1960136843F480331360136899038B
:1001AC00FCD55068124B114903405360536843F41B
:1001BC00E81343F480635360136843F08073136057
:1001CC000B689B01FCD54B68084A23F0030343F0F2
:1001DC0002034B60536803F00C03082BFAD1054B58
:1001EC00054A1A60704700BF002002400010024010
:1001FC000CC0C0FF0000002000A24A04704700BFE2
:10020C0070B586B018236A468821762000F0BCFAB7
:10021C0000216A460C46104BBDF800000F4E1860CA
:10022C00BDF902005860BDF904009860D07993794B
:10023C0043EA00231BB251B146F8213001310929A0
:10024C0002F10202F2D104B1356006B070BD012496
:10025C009DB221460232E9E72C0000200800002064
:10026C0030B583B004460D466A460623F721762046
:10027C0000F08AFA9DF801209DF80010120142EA64
:10028C0001329DF802109DF8043042EA11129DF8DB
:10029C0003101B0143EA01339DF805102A6043EA61
:1002AC001113236003B030BDD021762010B500F0BF
:1002BC0029FA582801D0002010BDB622E021762062
:1002CC0000F0F4F9F321762000F01CFA10F0010490
:1002DC00F8D1FFF795FF2246F521762000F0E6F9DC
:1002EC002F22F421762000F0E1F9012010BD00BF8F
:1002FC000D4930B4D1E901540B680C495A00C3EBD9
:10030C00201303FB03F31B1304FB03F3C2EBE00208
:10031C0005FB02F230BC9B1303EBE22303EB8300DF
:10032C00803000120B6070472C000020040000206D
:10033C00634B2DE9F0411968624CB1F5FA3C4FEA78
:10034C00E17141F1FF31ACFB0C65D4E901270CFBE9
:10035C0001F305EB430507FB05FE4FEAE77806FBC7
:10036C0008EEA7FB067802FB01F3C6444FEAE278DD
:10037C000CFB0833A2FB0C2843443F0A1B0347EA3F
:10038C000E6743EA12531203BA18276843EB2E2365
:10039C004FEAE77E02FB0EFE03F5004307FB03EE7C
:1003AC00A2FB0727BE444FEAEE734FEA6E0253EAF4
:1003BC006E0E00F082802769D4F814E007FB01F17F
:1003CC004FEAE7780CFB0811A7FB0C7C0EFB05F53C
:1003DC0061444FEAEE7C06FB0C55AEFB06E6490485
:1003EC0041EAD7317F0417EB0E07354445EB010189
:1003FC00E568C0F5801001EBC50100F0004545EA49
:10040C005005C007B0EB070E65EB01051EEB0E0C9B
:10041C0045EB05001CEB0E0C45EB000081014FEA8F
:10042C008C1641EA9C611CEB060C40EB0100800031
:10043C0040EA9C704FEA8C0C1CEB0E0C45EB000157
:10044C0089004FEA8C0010EB0E0041EA9C7145EBE1
:10045C00010100F031FA236A4A1303FB02FC470B3B
:10046C0047EAC1474FEAE37E07FB0ECCA3FB073EEE
:10047C0003FB02F2F44407FB0C22A3FB07373A44BC
:10048C005B0EE56943EAC2131B1841EB626205FB84
:10049C0001F1EE1706FB0011A5FB00500144ED0C19
:1004AC0045EA41355B19A46942EBE142180A40EA7E
:1004BC00026000EB0410BDE8F0810020BDE8F08183
:1004CC00040000200800002030B583B005460C461F
:1004DC00684601A9FFF7C4FE0098FFF709FF034621
:1004EC0001982B60FFF724FF000A206003B030BD99
:1004FC0010B442F2080041F64C540B490B4A8B697C
:10050C0043F4804343F004038B615368A1F55841D5
:10051C0023F0F0035360536843F0B00353608C60D6
:10052C0010BCC860704700BF0010024000080140BA
:10053C00017841B1044A13681B06FCD5516010F8D0
:10054C00011F0029F7D170470038014048B3002142
:10055C0030B5174D85B08446A5FB0023DB0801F1AF
:10056C00100201F1010E03EB8301A0EB41003030CE
:10057C000DEB0204BCF1090F04F80C0C5FFA8EF1C0
:10058C001846E8D859B1714601AC0A4A214411F811
:10059C00010D13681B06FCD5A1425060F7D105B0C4
:1005AC0030BD044A13681906FCD5302353607047DC
:1005BC00CDCCCCCC00380140002870B535DB0546DD
:1005CC0000293BD000230124013304EB840499421D
:1005DC004FEA4404F8D1B5FBF4F0FFF7B7FF1A4A21
:1005EC0013681906FCD52E23184E092CA6FB0410F3
:1005FC0053604FEAD00017D9134AB5FBF0F3A6FBB2
:10060C000341C90801EB8101A3EB41013031C9B2AF
:10061C0013681B06FCD5A6FB0043092851604FEA62
:10062C00D30301D91846E8E770BD074A13681C06C6
:10063C00FCD52D23454253600029C3D12846BDE883
:10064C007040FFF783BF00BF00380140CDCCCCCC4D
:10065C00F0B4252000262425B4240121114A124B84
:10066C00976947F008079761D76947F40017D76176
:10067C001A6822F070621A601A6842F070621A608E
:10068C001A6822F070421A601A6842F070421A60BE
:10069C00A3F538431E605D60DC611862F0BC196024
:1006AC00704700BF00100240000C014010B4144C05
:1006BC00A3699B07FCD4236843F480732360104C1C
:1006CC006369DB07FCD543000D48236143699C0734
:1006DC00FCD543690A4C836963691806FCD5084844
:1006EC00216143691906FCD5054902614B695B0719
:1006FC00FCD50B6810BC43F400730B60704700BF53
:10070C000054004030B41F4A93699B07FCD4136813
:10071C001C4C43F4807313606369DD07FCD5450002
:10072C00184A256153699807FCD553691548936994
:10073C0043691B06FCD5134A016153695C07FCD560
:10074C001368104943F4807313604B69D807FCD5C8
:10075C0045F001050B4A0D6153699907FCD51368E7
:10076C00084923F48063136053699369136843F455
:10077C00007313604B695B06FCD530BC0869C0B2D2
:10078C00704700BF0054004030B59E46364CA369FC
:10079C009B07FCD4236843F480732360324C636959
:1007AC00DD07FCD54500304B256158698407FCD525
:1007BC0058699B692C4B58690006FCD519612A4B6A
:1007CC0059694C07FCD5196841F4806119601968A6
:1007DC0021F400611960196841F480711960224B91
:1007EC00596911F00101FBD045F001051D611E4B4B
:1007FC0058698007FCD5BEF1030F58699B692FD946
:10080C00AEF10403DBB2184802F1FF3C134441691A
:10081C004906FCD501690CF8011F6345F7D1AEF10F
:10082C000305EDB2AEF102010EF1FF341544C9B26D
:10083C00E4B20D4843695B07FCD5036823F480637D
:10084C00036003692B70036843F40073036003694E
:10085C00535405494B695B06FCD50B69135530BDE8
:10086C0015460224E5E700BF00540040FFF78EFC5C
:10087C000B480C490C4A002302E0D458C4500433F2
:10088C00C4188C42F9D3094A094C002301E01360C7
:10089C000432A242FBD3FFF7B1FCFFF731FC7047E7
:1008AC000000002004000020780C00080400002048
:1008BC0038000020FEE700007BB972B90029BEBFEA
:1008CC0000204FF0004106E008BF00281CBF6FF06D
:1008DC0000414FF0FF3000F099B9ADF1080C6DE913
:1008EC0004CE002909DB002B1ADB00F035F8DDF80B
:1008FC0004E0DDE9022304B07047404261EB4101A2
:10090C00002B1BDB00F028F8DDF804E0DDE9022306
:10091C0004B0404261EB4101524263EB4303704728
:10092C00524263EB430300F017F8DDF804E0DDE915
:10093C00022304B0404261EB41017047524263EB29
:10094C00430300F009F8DDF804E0DDE9022304B00C
:10095C00524263EB430370472DE9F047089D0E4666
:10096C0004468E46002B4CD18A429446B2FA82F34E
:10097C0062D953B102FA03FCC3F1200201FA03FE5F
:10098C0020FA02F242EA0E0E9C404FEA1C47BEFBD4
:10099C00F7F11FFA8CF607FB11EE01FB06F0220CA7
:1009AC0042EA0E4290420AD91CEB020201F1FF3ED0
:1009BC0080F00E81904240F20B8102396244121A8F
:1009CC00B2FBF7F007FB102200FB06F6A4B244EAD8
:1009DC000244A6420AD91CEB040400F1FF3280F059
:1009EC00F980A64240F2F6806444023840EA0140A5
:1009FC000021A41B1DB1DC400023C5E90043BDE868
:100A0C00F0878B4205D90DB1C5E9000100210846DC
:100A1C00F5E7B3FA83F1002942D1B34202D3824203
:100A2C0000F2EE80841A66EB030201209646002D3C
:100A3C00E5D0C5E9004EE2E7002B40F08C80881A27
:100A4C000121170C96B2B0FBF7FE07FB1E00220C1F
:100A5C0042EA004206FB0EF0904208D91CEB02025F
:100A6C000EF1FF3802D2904200F2CC80C646121A28
:100A7C00B2FBF7F007FB102200FB06F6A4B244EA27
:100A8C000244A64208D91CEB040400F1FF3202D246
:100A9C00A64200F2B2801046A41B40EA0E40A9E721
:100AAC00C1F120078B4022FA07FC4CEA030C26FA12
:100ABC0007FA4FEA1C48BAFBF8FE06FA01F308FBEA
:100ACC001EAA1FFA8CF620FA07F400FA01F90EFBA5
:100ADC0006F023431C0C44EA0A44A04202FA01F239
:100AEC000BD91CEB04040EF1FF3A80F08480A04279
:100AFC0040F28180AEF1020E6444241A98B2B4FB29
:100B0C00F8F308FB134403FB06F640EA0444A64240
:100B1C0008D91CEB040403F1FF3068D2A64266D955
:100B2C00023B644443EA0E40A41BA0FB02E6B44221
:100B3C007346B04652D34FD05DB1B9EB030264EBB0
:100B4C00080404FA07F722FA01F31F43CC40C5E965
:100B5C000074002153E702FA03FCC3F12000C140EA
:100B6C004FEA1C47B1FBF7FE07FB1E1124FA00F0FD
:100B7C009E403043020C1FFA8CF642EA01420EFBF7
:100B8C0006F1914204FA03F409D91CEB02020EF1AE
:100B9C00FF382ED291422CD9AEF1020E6244521A79
:100BAC00B2FBF7F107FB112280B240EA024001FBD5
:100BBC0006F2824208D91CEB000001F1FF3814D276
:100BCC00824212D902396044801A41EA0E413AE756
:100BDC007146F4E6104609E7F145ADD2BEEB0203CF
:100BEC0066EB0C060138B046A6E74146ECE7034637
:100BFC0098E7C646D3E7D6467FE7644402384BE70E
:100C0C00084614E7AEF1020E624430E7704700BFAD
:100C1C00424D503238302073746172740D0A0000EA
:100C2C0000000000424D50323830206E6F74206648
:100C3C006F756E640D0A000054656D706572617499
:100C4C007572653A2000000020430D0A0000000078
:100C5C0050726573737572653A2000002050610DF7
:040C6C000A0D0A0063
:080C7000F4FCFF7F010000000D
:040C780000A24A0488
:04000005080008796E
:00000001FF
