:020000040800F2
:1000000000500020350300087D0300087D03000830
:100010007D0300087D0300087D0300080000000048
:100020000000000000000000000000007D03000848
:100030007D030008000000007D0300087D03000828
:100040007D0300087D0300087D0300087D03000890
:100050007D0300087D0300087D0300087D03000880
:100060007D0300087D0300087D0300087D03000870
:100070007D0300087D0300087D0300087D03000860
:100080007D0300087D0300087D0300087D03000850
:100090007D0300087D0300087D0300087D03000840
:1000A0007D0300087D0300087D0300087D03000830
:1000B0007D0300087D0300087D0300087D03000820
:1000C0007D0300087D0300087D0300087D03000810
:1000D0007D0300087D0300087D0300087D03000800
:1000E0007D0300087D0300087D0300080000000078
:1000F0000000000000000000000000000000000000
:0C01000000000000000000005FF808F1A3
:10010C0080B500F08FF8002700F006F90B4D0024A5
:10011C00FEB22A78C4F107031A41E0B2314602F06C
:10012C000102013400F0DEF8082CF2D10137082F5F
:10013C0005F10105EBD100F0C7F8FEE780030008DC
:10014C001421164B164A1960136843F4803313605C
:10015C0013689903FCD55068124B11490340536046
:10016C00536843F4E81343F480635360136843F01B
:10017C00807313600B689B01FCD54B68084A23F015
:10018C00030343F002034B60536803F00C03082B8A
:10019C00FAD1054B054A1A60704700BF0020024097
:1001AC00001002400CC0C0FF0000002000A24A0456
:1001BC00704700BF10B400231024184A83B0546158
:1001CC000193019B092B05D8019B01330193019BE2
:1001DC00092BF9D9124A93689C07FCD5104CD060B6
:1001EC00A3681A06FCD40E4A93689B07FCD50C48EE
:1001FC00D160836813F08003FBD10093009B092B23
:10020C0005D8009B01330093009B092BF9D91022D0
:10021C00024B1A6103B010BC704700BF00080140CC
:10022C000030014038B54FF441752349234B8A699E
:10023C00234C42F4805242F004028A611A68002175
:10024C0022F470221A601A68092042F400321A60F3
:10025C001A6822F0704222F470021A601A6842F492
:10026C0020021A601A6842F020421A602560236846
:10027C0043F040032360FFF79DFF07210A20FFF79F
:10028C0099FF0B20FFF796FF01210C20FFF792FF3F
:10029C0000210F20FFF78EFF002000210124094BC5
:1002AC00C3E900015D1EE0B215F8011F0134FFF730
:1002BC0081FF092CF7D138BD001002400008014025
:1002CC00003001400800002038B50124044DE0B294
:1002DC0015F8011F0134FFF76DFF092CF7D138BD5C
:1002EC000700002040EA0103072B12D8012310B4A9
:1002FC00084C834014F801C02AB92CEA030C04F80A
:10030C0001C010BC70474CEA030C04F801C010BCCF
:10031C00704770470800002000200021014BC3E902
:10032C000001704708000020FFF70AFF0B480C493A
:10033C000C4A002302E0D458C4500433C4188C4235
:10034C00F9D3094A094C002301E013600432A2429C
:10035C00FBD3FFF72DFFFFF7D3FE70470000002003
:10036C000400002088030008080000201000002072
:0C037C00FEE700003C42A599BD99423C00
:0403880000A24A0481
:0400000508000335B7
:00000001FF
