:020000040800F2
:1000000000500020CD050008150600081506000860
:100010001506000815060008150600080000000077
:1000200000000000000000000000000015060008AD
:100030001506000800000000150600081506000857
:100040001506000815060008150600081506000824
:100050001506000815060008150600081506000814
:100060001506000815060008150600081506000804
:1000700015060008150600081506000815060008F4
:1000800015060008150600081506000815060008E4
:1000900015060008150600081506000815060008D4
:1000A00015060008150600081506000815060008C4
:1000B00015060008150600081506000815060008B4
:1000C00015060008150600081506000815060008A4
:1000D000150600087D04000815060008150600082E
:1000E00015060008150600081506000800000000A7
:1000F0000000000000000000000000000000000000
:0C01000000000000000000005FF808F1A3
:10010C0030B4002141F64C54194A1A4B90691A4DDF
:10011C0040F004009061906940F480409061202090
:10012C005A6822F0F0025A605A6842F0B0025A60E3
:10013C005A6822F470625A605A6842F480625A60BB
:10014C0003F54053D960196159619C60DA6842F03B
:10015C000402DA60DA6842F00802DA60DA68024314
:10016C00DA60DA6842F40052DA60686030BC7047DA
:10017C00001002400008014000E100E0F0B401244E
:10018C004FF08043002140F2E737682680254FF07E
:10019C00470C114A906940F004009061D0692043EB
:1001AC00D0611960A2F584321962C3F828C0DF62ED
:1001BC0059639E611D605C6119611C62116821F0BC
:1001CC000F011160116841F00A0111601A68224395
:1001DC001A60F0BC704700BF00100240017841B1BA
:1001EC00044A13681B06FCD5516010F8011F002946
:1001FC00F7D1704700380140632810B432DD1C4C35
:10020C00C11784FB0034C1EB64143034194AE4B2D6
:10021C0013681B06FCD55460174B184A83FB00432C
:10022C00C1EBA303A2FB03C2D20802EB8202A3EB35
:10023C00420230320F4CD2B223681B06FCD56260EE
:10024C000D4B0C4A83FB0043C1EBA30303EB83036D
:10025C00A0EB43003030C0B213681B06FCD510BCB9
:10026C005060704709284FEAE071E9DDD4E700BF20
:10027C001F85EB510038014067666666CDCCCCCC4F
:10028C001E4B70B51D684C21002D2BD01C481D4AEF
:10029C0013681E06FCD5516010F8011F0029F7D118
:1002AC00194B1A4C1E683046FFF7A6FF2521154A3C
:1002BC0013681B06FCD5516014F8011F0029F7D1F7
:1002CC00002D14BF30460020FFF796FF2521104863
:1002DC000C4A13681B06FCD5516010F8011F00294D
:1002EC00F7D170BD0B48074A13681C06FCD551604A
:1002FC0010F8011F0029F7D1D2E700BF0800002039
:10030C0018060008003801400000002038060008DC
:10031C00440600082806000810B44F2200234B495D
:10032C004B4C03E011F8012F002A53D0E05C013351
:10033C009042F7D04F220023464903E011F8012FD9
:10034C00002A65D0E05C01339042F7D053220023A1
:10035C00414903E011F8012F002A65D0E05C01331C
:10036C009042F7D02378502B45D16378572B42D14C
:10037C00A3784D2B3FD1E3783A2B3CD123792F2B0B
:10038C0058D9002104230A46E05C01EB810C392882
:10039C004ED80132042A4DD0E15C0133E05C01EB14
:1003AC004C012F28A1F13001EED8642942DCE25C2B
:1003BC00252A3FD10133E35C002B3BD1274A284B44
:1003CC00126819606AB94FF0804300225A6310BC5E
:1003DC00FFF756BFE35C002BACD101211F4A204B29
:1003EC0011604FF080421B6810BC03EB83035B0071
:1003FC005363FFF745BF45211A481B4A13681B0678
:10040C00FCD5516010F8011F0029F7D110BC7047C2
:10041C00E35C002B9AD1114B10BC1A604FF0804357
:10042C0000225A63FFF72CBFE35C002BCFD099E777
:10043C00002ABAD145210D480B4A13681C06FCD57D
:10044C00516010F8011F0029F7D1DFE79006000872
:10045C0018000020940600089806000808000020E8
:10046C00000000206806000800380140480600081B
:10047C00184A136813F02F0F1BD0174952680868DD
:10048C00B8B913F00F031ED1D2B2212A12D00D2A03
:10049C000FD00A2A0DD0114B196851B910490868B0
:1004AC003E2814DC0B680F48C2540B6801330B60F8
:1004BC007047704701220A4810B40068094C235455
:1004CC0010BC0A6070470122044B1A60704701226D
:1004DC001A60704700380140100000200C0000200A
:1004EC00140000201800002080B5FFF747FEFFF72E
:1004FC0007FE1048FFF772FE00260F4DDFF83C8018
:10050C000F4F104C2B68002BFCD0D8F8003033B9AF
:10051C00FFF702FF3E60C8F800602E60F2E745224C
:10052C00094923681B06FCD5626011F8012F002ACB
:10053C00F7D1EFE7C0060008100000200C000020E7
:10054C001400002000380140A00600081421164BAE
:10055C00164A1960136843F48033136013689903C7
:10056C00FCD55068124B114903405360536843F457
:10057C00E81343F480635360136843F08073136093
:10058C000B689B01FCD54B68084A23F0030343F02E
:10059C0002034B60536803F00C03082BFAD1054B94
:1005AC00054A1A60704700BF00200240001002404C
:1005BC000CC0C0FF0400002000A24A04704700BF1A
:1005CC00FFF7C4FF0B480C490C4A002302E0D45837
:1005DC00C4500433C4188C42F9D3094A094C002383
:1005EC0001E013600432A242FBD3FFF7E7FFFFF7F1
:1005FC007BFF70470000002008000020E806000880
:10060C000800002058000020FEE700004C45443D47
:10061C004F4E3B2050574D3D000000004C45443D93
:10062C004F46463B2050574D3D000000253B204F88
:10063C0055545055543D0000250D0A004552524F5B
:10064C00523A207573652050574D3A3025212E2E85
:10065C0050574D3A31303025210D0A004552524F3A
:10066C00523A20757365204F4E21204F464621206B
:10067C0050574D3A353025212053746174757321D0
:10068C000D0A00004F4E00004F4646005374617433
:10069C00757300004552524F523A205258206F72D7
:1006AC0020636F6D6D616E6420746F6F206C6F6E64
:1006BC00670D0A0052454144593A203936303020F2
:1006CC00384E312C20656E6420636F6D6D616E64E5
:0C06DC00207769746820210D0A000000DE
:0806E8003200000000A24A04E8
:04000005080005CD1D
:00000001FF
