:020000040800F2
:1000000000500020CD020008150300081503000869
:100010001503000815030008150300080000000080
:1000200000000000000000000000000015030008B0
:100030001503000800000000150300081503000860
:100040001503000815030008150300081503000830
:100050001503000815030008150300081503000820
:100060001503000815030008150300081503000810
:100070001503000815030008150300081503000800
:1000800015030008150300081503000815030008F0
:1000900015030008150300081503000815030008E0
:1000A00015030008150300081503000815030008D0
:1000B00015030008150300081503000815030008C0
:1000C00015030008150300081503000815030008B0
:1000D000150300080D0200081503000815030008A9
:1000E00015030008150300081503000800000000B0
:1000F0000000000000000000000000000000000000
:0C01000000000000000000005FF808F1A3
:10010C0008B500F003F800F03FF8FCE710B441F636
:10011C004C541A4B1A4A9869202140F004009861FB
:10012C00986940F4804098615068A3F5584320F0DA
:10013C00F0005060506840F0B0005060506820F4FF
:10014C0070605060506840F4806050609C60DA6869
:10015C000C4822F48052DA60DA6810BC42F00402D7
:10016C00DA60DA6842F00802DA60DA680A43DA60C8
:10017C00DA6842F40052DA604160704700100240C5
:10018C000008014000E100E030B4174C23680BB9C3
:10019C0030BC704745211548154A13681D06FCD51F
:1001AC00516010F8011F0029F7D1124D2B7853B173
:1001BC000F4A685C0131C0B213681B06FCD5506055
:1001CC006B5C002BF5D10D210B48094A13681B06FB
:1001DC00FCD5516010F8011F0029F7D1074B1960AD
:1001EC00216030BC704700BF0400002018030008D9
:1001FC00003801400C0000202803000808000020F3
:10020C000E4B5B68DBB2212B0DD00D2B0AD00A2BC9
:10021C0008D00B490B480A6810B4541C0C6083546A
:10022C0010BC704770474FF0000C0122044B05487E
:10023C001968054B00F801C01A607047003801407E
:10024C00080000200C000020040000201421164B94
:10025C00164A1960136843F48033136013689903CA
:10026C00FCD55068124B114903405360536843F45A
:10027C00E81343F480635360136843F08073136096
:10028C000B689B01FCD54B68084A23F0030343F031
:10029C0002034B60536803F00C03082BFAD1054B97
:1002AC00054A1A60704700BF00200240001002404F
:1002BC000CC0C0FF0000002000A24A04704700BF21
:1002CC00FFF7C4FF0B480C490C4A002302E0D4583A
:1002DC00C4500433C4188C42F9D3094A094C002386
:1002EC0001E013600432A242FBD3FFF7E7FFFFF7F4
:1002FC0007FF704700000020040000202C030008BA
:10030C00040000204C000020FEE70000454C453165
:10031C003431355F30323A20000000000D0A000005
:04032C0000A24A04DD
:04000005080002CD20
:00000001FF
