:020000040800F2
:1000000000500020B90200080103000801030008A5
:1000100001030008010300080103000800000000BC
:1000200000000000000000000000000001030008C4
:10003000010300080000000001030008010300089C
:100040000103000801030008010300080103000880
:100050000103000801030008010300080103000870
:100060000103000801030008010300080103000860
:100070000103000801030008010300080103000850
:100080000103000801030008010300080103000840
:100090000103000801030008010300080103000830
:1000A0000103000801030008010300080103000820
:1000B0000103000801030008010300080103000810
:1000C0000103000801030008010300080103000800
:1000D000010300088901000801030008010300086A
:1000E00001030008010300080103000800000000EC
:1000F0000000000000000000000000000000000000
:0C01000000000000000000005FF808F1A3
:10010C0010B441F64C541A4B1A4A9869202140F00D
:10011C0004009861986940F4804098615068A3F598
:10012C00584320F0F0005060506840F0B000506030
:10013C00506820F470605060506840F480605060EB
:10014C009C60DA680C4822F48052DA60DA6810BCE1
:10015C0042F00402DA60DA6842F00802DA60DA6827
:10016C000A43DA60DA6842F40052DA6041607047A0
:10017C00001002400008014000E100E00D4B5B68FC
:10018C00DBB2212B0BD00D2B08D00A2B06D00A4A40
:10019C000A481168435413680133136070474FF0D9
:1001AC00000C0122044B05481968054B00F801C0EE
:1001BC001A60704700380140080000200C00002035
:1001CC000400002008B5FFF79BFF154E154D164C8B
:1001DC00164B3268002AFCD0452115481A681206C5
:1001EC00FCD5596010F8011F0029F7D12A784AB1C3
:1001FC00685CC0B21A681206FCD5586001316A5CA2
:10020C00002AF5D10D210B481A681206FCD559604D
:10021C0010F8011F0029F7D121603160D9E700BF28
:10022C00040000200C0000200800002000380140D1
:10023C0004030008140300081421164B164A196015
:10024C00136843F48033136013689903FCD550682A
:10025C00124B114903405360536843F4E81343F4C1
:10026C0080635360136843F0807313600B689B01C9
:10027C00FCD54B68084A23F0030343F002034B60A0
:10028C00536803F00C03082BFAD1054B054A1A608E
:10029C00704700BF00200240001002400CC0C0FF9D
:1002AC000000002000A24A04704700BFFFF7C4FF03
:1002BC000B480C490C4A002302E0D458C4500433B8
:1002CC00C4188C42F9D3094A094C002301E013608D
:1002DC000432A242FBD3FFF7E7FFFFF773FF70472F
:1002EC000000002004000020180300080400002077
:1002FC004C000020FEE70000454C45313431355FA1
:0C030C0030323A20000000000D0A000012
:0403180000A24A04F1
:04000005080002B934
:00000001FF
